:100000002FC0000077C3000075C3000073C3000059
:1000100071C300006FC300006DC300006BC300001C
:1000200069C3000067C3000065C3000063C300002C
:1000300061C300005FC300005DC300005BC300003C
:1000400059C3000057C3000055C3000053C300004C
:1000500051C3000000600081800081008B0006F623
:1000600011241FBECFE5D8E0DEBFCDBFE4E5F0E050
:1000700040E017C0B591A59135912591059107FDF7
:100080000CC095918591EF01F92FE82F05900D9205
:10009000A217B307D9F7FE0104C01D92A217B30738
:1000A000E1F7E036F40731F703D000C0F894FFCF52
:1000B000B1D080916300813049F030F0823009F492
:1000C00007D080E090E008953CD0FBCF4BD0F9CF33
:1000D000C098C498C5988091660090916700019778
:1000E00051F128D117D1813051F003D160916400D2
:1000F00070916500813061F080E090E0AAC080914D
:100100006400909165008B34910578F7059605C0E1
:100110006432710588F3CB01059790936500809355
:10012000640010926200AAD0609164007091650032
:1001300080E090E08EC080916400909165009ED038
:02014000D1CF1D
:10014200F8D0C098C498C59885B78F7E85BF85B70B
:100152008F7D85BF85B78F7B85BF85B7806885BF5B
:020162000895FE
:10016400809161008130A9F040916800509169004C
:10017400CA0182D0DFD0CCD0813021F0B8D0813018
:1001840009F00895FED01092620082E0809363002B
:100194000895FAD0BC0180E090E0FFD020E030E088
:1001A40040E05FE337D138D1AB01709369006093CD
:1001B400680020916000E22FF0E0EE0FFF1FE3598A
:1001C400FF4F7183608381E0820F8A30F1F0809366
:1001D4006000EDE6F0E020E030E081919191280F9D
:1001E400391F80E0E138F807C1F7ADECBCEC40D131
:1001F40096958795969587959695879590936B0098
:1002040080936A0010926100B3CF10926000E1CF36
:1002140086D149D141D1B89AC098BD9ABC9A10925E
:10022400630080E090E033D18F3F61F482E390E09B
:10023400909365008093640044D16091640080E0F1
:0E02440090E005C080E090E022D190E0F1CF84
:100252008EBB9FBB6DBB0FB607FC0AC080E0E29A63
:10026200E19AE199FECF813009F0089578940895DA
:0A0272008FB78F778FBF81E0F2CFC6
:10027C00CF93DF93EC016ED19E01ADECBCECF4D0CE
:10028C009695879596958795969587959C01220FBF
:10029C00331F880F991F880F991F880F991F820F82
:1002AC00931FFE01E81BF90BEF57FF4F808182BBB8
:1002BC0081EE94E00197F1F700C00000C79AC69850
:1002CC00CE016AE070E033D1FB01FF27EF57FF4FFF
:1002DC00808182BB81EE94E00197F1F700C00000B1
:0602EC00DF91CF9108959F
:1002F200B39B02C080E0089587EA91E60197F1F787
:1003020000C0000086B383FB992790F981E089271A
:0203120008954C
:10031400B19B02C080E0089587EA91E60197F1F766
:1003240000C0000086B38695817091E08927089506
:0403340012BA08955C
:1003380080916A0090916B00209164003091650073
:10034800AC014B5F5F4F05972417350738F48217C8
:10035800930788F0C498C59AC09A0895821793079E
:1003680048F4C49AC59880916600909167000197F7
:0E03780099F3C0980895C098C498C598089548
:06038600C698C798089517
:10038C00369A309BFECF84B125B1349A90E0922BF3
:02039C000895C2
:10039E00E89409C097FB3EF4909580957095619511
:1003AE007F4F8F4F9F4F9923A9F0F92F96E9BB27C7
:1003BE009395F695879577956795B795F111F8CF43
:1003CE00FAF4BB0F11F460FF1BC06F5F7F4F8F4FAE
:1003DE009F4F16C0882311F096E911C0772321F0A4
:1003EE009EE8872F762F05C0662371F096E8862F3C
:1003FE0070E060E02AF09A95660F771F881FDAF793
:0A040E00880F9695879597F90895D9
:04041800B7D0A5C0F4
:10041C0026D188F09F5790F0B92F9927B751A0F0AB
:10042C00D1F0660F771F881F991F1AF0BA95C9F77C
:10043C0012C0B13081F004D1B1E0089501C1672F31
:10044C00782F8827B85F39F0B93FCCF3869577952C
:10045C006795B395D9F73EF4909580957095619515
:08046C007F4F8F4F9F4F089551
:10047400A29FB001B39FC001A39F700D811D1124E1
:0E048400911DB29F700D811D1124911D0895D0
:0A0492008EBB9FBBE09A8DB3089566
:0E049C008FEF81BBBE9ABF9AC698C79808958D
:1004AA00BA98B998BB98C29AC19AC39A789484B7F1
:0C04BA00806484BF8BB780628BBF089504
:1004C60062DFBC0180E090E067DF20E030E040E0E2
:1004D6005FE39FDFA0DFEDE6F0E0DF016D937D9344
:1004E60080E0A138B807D1F720E030E08191919102
:1004F600280F391F80E0E138F807C1F7ADECBCECF6
:10050600B6DF969587959695879596958795909358
:0C0516006B0080936A0010926000089552
:100522003E9A389839983A983B983C983D98309A38
:0805320031983298379A0895C0
:10053A0097FB072E16F4009406D077FD08D0AAD0B0
:10054A0007FC05D03EF4909581959F4F08957095CC
:06055A0061957F4F08953A
:06056000C69AC798089539
:10056600092E0394000C11F4882352F0BB0F40F4BB
:10057600BF2B11F460FF04C06F5F7F4F8F4F9F4FFB
:020586000895D6
:100588000AC0ADD028F0A4D018F0952309F097C080
:100598009CC0112458C05DD0A0F3959FD1F3950F4E
:1005A80050E0551F629FF001729FBB27F00DB11DEF
:1005B800639FAA27F00DB11DAA1F649F6627B00D7F
:1005C800A11D661F829F2227B00DA11D621F739F68
:1005D800B00DA11D621F839FA00D611D221F749F76
:1005E8003327A00D611D231F849F600D211D822FBD
:1005F800762F6A2F11249F5750408AF0E1F0882304
:100608004AF0EE0FFF1FBB1F661F771F881F915010
:100618005040A9F79E3F510570F051C014C05F3F8C
:10062800ECF3983EDCF3869577956795B795F79543
:10063800E7959F5FC1F7FE2B880F911D96958795CB
:0406480097F9089581
:0E064C00E894BB2766277727CB0197F908951E
:10065A0057FD9058440F551F59F05F3F71F0479569
:10066A00880F97FB991F61F09F3F79F0879508954E
:10067A00121613061406551FF2CF4695F1DF08C06D
:10068A00161617061806991FF1CF8695710561058A
:04069A000894089523
:10069E00AA1BBB1B51E107C0AA1FBB1FA617B7079A
:1006AE0010F0A61BB70B881F991F5A95A9F78095B6
:0806BE009095BC01CD010895E7
:0C06C60097F99F6780E870E060E00895FD
:0606D2009FEF80EC08958B
:0E06D80000240A94121613061406050608954F
:0E06E60000240A941616170618060906089531
:0206F40085CCB3
:0A06F6003F065B4F666D7D077F6FC6
:00000001FF
